{
  "contractName": "Bridge",
  "abi": [
    {
      "inputs": [
        {
          "internalType": "uint32",
          "name": "chain_id",
          "type": "uint32"
        }
      ],
      "stateMutability": "nonpayable",
      "type": "constructor"
    },
    {
      "anonymous": false,
      "inputs": [
        {
          "indexed": false,
          "internalType": "uint256",
          "name": "l1token",
          "type": "uint256"
        },
        {
          "indexed": false,
          "internalType": "uint256",
          "name": "l2account",
          "type": "uint256"
        },
        {
          "indexed": false,
          "internalType": "uint256",
          "name": "amount",
          "type": "uint256"
        }
      ],
      "name": "Deposit",
      "type": "event"
    },
    {
      "anonymous": false,
      "inputs": [
        {
          "indexed": false,
          "internalType": "uint256",
          "name": "rid",
          "type": "uint256"
        },
        {
          "indexed": false,
          "internalType": "uint256",
          "name": "l2account",
          "type": "uint256"
        }
      ],
      "name": "SwapAck",
      "type": "event"
    },
    {
      "anonymous": false,
      "inputs": [
        {
          "indexed": false,
          "internalType": "uint256",
          "name": "l1account",
          "type": "uint256"
        },
        {
          "indexed": false,
          "internalType": "uint256",
          "name": "l2account",
          "type": "uint256"
        },
        {
          "indexed": false,
          "internalType": "uint256",
          "name": "amount",
          "type": "uint256"
        }
      ],
      "name": "WithDraw",
      "type": "event"
    },
    {
      "inputs": [],
      "name": "getBridgeInfo",
      "outputs": [
        {
          "components": [
            {
              "internalType": "uint128",
              "name": "chain_id",
              "type": "uint128"
            },
            {
              "internalType": "uint32",
              "name": "amount_token",
              "type": "uint32"
            },
            {
              "internalType": "uint32",
              "name": "amount_pool",
              "type": "uint32"
            },
            {
              "internalType": "address",
              "name": "owner",
              "type": "address"
            },
            {
              "internalType": "uint256",
              "name": "merkle_root",
              "type": "uint256"
            },
            {
              "internalType": "uint256",
              "name": "rid",
              "type": "uint256"
            },
            {
              "internalType": "uint16",
              "name": "verifierID",
              "type": "uint16"
            }
          ],
          "internalType": "struct BridgeInfo",
          "name": "",
          "type": "tuple"
        }
      ],
      "stateMutability": "view",
      "type": "function",
      "constant": true
    },
    {
      "inputs": [
        {
          "internalType": "uint256",
          "name": "token",
          "type": "uint256"
        }
      ],
      "name": "addToken",
      "outputs": [
        {
          "internalType": "uint32",
          "name": "",
          "type": "uint32"
        }
      ],
      "stateMutability": "nonpayable",
      "type": "function"
    },
    {
      "inputs": [],
      "name": "allTokens",
      "outputs": [
        {
          "components": [
            {
              "internalType": "uint256",
              "name": "token_uid",
              "type": "uint256"
            }
          ],
          "internalType": "struct TokenInfo[]",
          "name": "",
          "type": "tuple[]"
        }
      ],
      "stateMutability": "view",
      "type": "function",
      "constant": true
    },
    {
      "inputs": [
        {
          "internalType": "uint128",
          "name": "tidx",
          "type": "uint128"
        },
        {
          "internalType": "uint128",
          "name": "amount",
          "type": "uint128"
        },
        {
          "internalType": "uint256",
          "name": "l1recipent",
          "type": "uint256"
        }
      ],
      "name": "_withdraw",
      "outputs": [],
      "stateMutability": "nonpayable",
      "type": "function"
    },
    {
      "inputs": [
        {
          "internalType": "address",
          "name": "txaddr",
          "type": "address"
        },
        {
          "internalType": "bool",
          "name": "sideEffect",
          "type": "bool"
        }
      ],
      "name": "addTransaction",
      "outputs": [
        {
          "internalType": "uint256",
          "name": "",
          "type": "uint256"
        }
      ],
      "stateMutability": "nonpayable",
      "type": "function"
    },
    {
      "inputs": [
        {
          "internalType": "address",
          "name": "vaddr",
          "type": "address"
        }
      ],
      "name": "addVerifier",
      "outputs": [
        {
          "internalType": "uint256",
          "name": "",
          "type": "uint256"
        }
      ],
      "stateMutability": "nonpayable",
      "type": "function"
    },
    {
      "inputs": [
        {
          "internalType": "address",
          "name": "token",
          "type": "address"
        },
        {
          "internalType": "uint256",
          "name": "amount",
          "type": "uint256"
        },
        {
          "internalType": "uint256",
          "name": "l2account",
          "type": "uint256"
        }
      ],
      "name": "deposit",
      "outputs": [],
      "stateMutability": "nonpayable",
      "type": "function"
    },
    {
      "inputs": [
        {
          "internalType": "bytes",
          "name": "tx_data",
          "type": "bytes"
        },
        {
          "internalType": "uint256[]",
          "name": "verify_data",
          "type": "uint256[]"
        },
        {
          "internalType": "uint256",
          "name": "_rid",
          "type": "uint256"
        }
      ],
      "name": "verify",
      "outputs": [],
      "stateMutability": "nonpayable",
      "type": "function"
    }
  ],
  "bytecode": "0x60806040523480156200001157600080fd5b5060405162002b1d38038062002b1d833981810160405281019062000037919062000139565b8063ffffffff16600360000160006101000a8154816fffffffffffffffffffffffffffffffff02191690836fffffffffffffffffffffffffffffffff16021790555033600360010160006101000a81548173ffffffffffffffffffffffffffffffffffffffff021916908373ffffffffffffffffffffffffffffffffffffffff1602179055507f151399c724e17408a7a43cdadba2fc000da9339c56e4d49c6cdee6c4356fbc68600b819055506000600c81905550506200016b565b600080fd5b600063ffffffff82169050919050565b6200011381620000f8565b81146200011f57600080fd5b50565b600081519050620001338162000108565b92915050565b600060208284031215620001525762000151620000f3565b5b6000620001628482850162000122565b91505092915050565b6129a2806200017b6000396000f3fe608060405234801561001057600080fd5b50600436106100885760003560e01c80637e0245631161005b5780637e024563146101275780639000b3d614610143578063bcb8afc514610173578063ede7cebd1461018f57610088565b80630efe6a8b1461008d578063179d375c146100a95780634e5ca59e146100d95780636ff97f1d14610109575b600080fd5b6100a760048036038101906100a2919061156e565b6101ad565b005b6100c360048036038101906100be91906115c1565b61033e565b6040516100d0919061160d565b60405180910390f35b6100f360048036038101906100ee9190611660565b610460565b60405161010091906116af565b60405180910390f35b61011161055b565b60405161011e91906117a4565b60405180910390f35b610141600480360381019061013c9190611881565b6105c0565b005b61015d60048036038101906101589190611916565b610a72565b60405161016a91906116af565b60405180910390f35b61018d6004803603810190610188919061198b565b610b69565b005b610197610c3a565b6040516101a49190611ab6565b60405180910390f35b600083905060006101bd85610d36565b9050600115156008600083815260200190815260200160002060009054906101000a900460ff16151514610226576040517f08c379a000000000000000000000000000000000000000000000000000000000815260040161021d90611b2e565b60405180910390fd5b60008273ffffffffffffffffffffffffffffffffffffffff166370a08231336040518263ffffffff1660e01b81526004016102619190611b5d565b602060405180830381865afa15801561027e573d6000803e3d6000fd5b505050506040513d601f19601f820116820180604052508101906102a29190611b8d565b9050848110156102e7576040517f08c379a00000000000000000000000000000000000000000000000000000000081526004016102de90611c06565b60405180910390fd5b6102f383333088610d98565b7f33da4f9b82b3e18a281ca2cabbe2f076925692abb593b7ea3f850009e8ec977061031d87610d36565b858760405161032e93929190611c26565b60405180910390a1505050505050565b60008060008054905090506000604051806020016040528085815250908060018154018082558091505060019003906000526020600020016000909190919091506000820151816000015550506001816103989190611c8c565b600360000160106101000a81548163ffffffff021916908363ffffffff160217905550600015156008600085815260200190815260200160002060009054906101000a900460ff16151514610422576040517f08c379a000000000000000000000000000000000000000000000000000000000815260040161041990611d10565b60405180910390fd5b600083146104575760016008600085815260200190815260200160002060006101000a81548160ff0219169083151502179055505b80915050919050565b600061046a610ef0565b6000600180549050905060ff600180549050106104bc576040517f08c379a00000000000000000000000000000000000000000000000000000000081526004016104b390611d7c565b60405180910390fd5b6001849080600181540180825580915050600190039060005260206000200160009091909190916101000a81548173ffffffffffffffffffffffffffffffffffffffff021916908373ffffffffffffffffffffffffffffffffffffffff16021790555082156105515782600a600083815260200190815260200160002060006101000a81548160ff0219169083151502179055505b8091505092915050565b60606000805480602002602001604051908101604052809291908181526020016000905b828210156105b7578382906000526020600020016040518060200160405290816000820154815250508152602001906001019061057f565b50505050905090565b80600c5414610604576040517f08c379a00000000000000000000000000000000000000000000000000000000081526004016105fb90611de8565b60405180910390fd5b600a60516106129190611e08565b8585905014610656576040517f08c379a000000000000000000000000000000000000000000000000000000000815260040161064d90611ed4565b60405180910390fd5b60006002868660405161066a929190611f33565b602060405180830381855afa158015610687573d6000803e3d6000fd5b5050506040513d601f19601f820116820180604052508101906106aa9190611f82565b60001c9050838360098181106106c3576106c2611faf565b5b905060200201356080858560088181106106e0576106df611faf565b5b90506020020135901b6106f39190611fde565b8114610734576040517f08c379a000000000000000000000000000000000000000000000000000000000815260040161072b90612084565b60405180910390fd5b8383600a81811061074857610747611faf565b5b90506020020135600b5414610792576040517f08c379a0000000000000000000000000000000000000000000000000000000008152600401610789906120f0565b60405180910390fd5b60006107ad600d60009054906101000a900461ffff16610f85565b905060008173ffffffffffffffffffffffffffffffffffffffff1663b91b0b8387876040518363ffffffff1660e01b81526004016107ec92919061218b565b6020604051808303816000875af115801561080b573d6000803e3d6000fd5b505050506040513d601f19601f8201168201806040525081019061082f91906121c4565b90506001151581151514610878576040517f08c379a000000000000000000000000000000000000000000000000000000000815260040161086f9061223d565b60405180910390fd5b60005b600a8110156109f357600089896051846108959190611e08565b8181106108a5576108a4611faf565b5b9050013560f81c60f81b60f81c90508060ff16600180549050116108fe576040517f08c379a00000000000000000000000000000000000000000000000000000000081526004016108f590611d7c565b60405180910390fd5b600a60008260ff16815260200190815260200160002060009054906101000a900460ff16156109df5760006109328261101c565b905060008173ffffffffffffffffffffffffffffffffffffffff16634ab51c038d8d60016051896109639190611e08565b61096d9190611fde565b6040518463ffffffff1660e01b815260040161098b939291906122ac565b600060405180830381865afa1580156109a8573d6000803e3d6000fd5b505050506040513d6000823e3d601f19601f820116820180604052508101906109d1919061241c565b90506109dc816110b1565b50505b5080806109eb90612465565b91505061087b565b5060008686600b818110610a0a57610a09611faf565b5b90506020020135905080600b81905550600a85610a279190611fde565b600c819055507fbd839b7672235005c35f9c18d40fb67d8a10ebe332a815c4c2f1d1cd5a52b421856000604051610a5f9291906124f2565b60405180910390a1505050505050505050565b6000610a7c610ef0565b6000600280549050905061ffff60028054905010610acf576040517f08c379a0000000000000000000000000000000000000000000000000000000008152600401610ac690612567565b60405180910390fd5b6002839080600181540180825580915050600190039060005260206000200160009091909190916101000a81548173ffffffffffffffffffffffffffffffffffffffff021916908373ffffffffffffffffffffffffffffffffffffffff1602179055506001600280549050610b449190612587565b600d60006101000a81548161ffff021916908361ffff16021790555080915050919050565b6000610b748461120d565b9050610b7f816112b9565b8015610b905750610b8f826112b9565b5b15610c345760008190506000839050600073ffffffffffffffffffffffffffffffffffffffff168173ffffffffffffffffffffffffffffffffffffffff1603610c0e576040517f08c379a0000000000000000000000000000000000000000000000000000000008152600401610c0590612607565b60405180910390fd5b6000829050610c308183886fffffffffffffffffffffffffffffffff166112fc565b5050505b50505050565b610c42611451565b6040518060e00160405280600360000160009054906101000a90046fffffffffffffffffffffffffffffffff166fffffffffffffffffffffffffffffffff168152602001600360000160109054906101000a900463ffffffff1663ffffffff168152602001600360000160149054906101000a900463ffffffff1663ffffffff168152602001600360010160009054906101000a900473ffffffffffffffffffffffffffffffffffffffff1673ffffffffffffffffffffffffffffffffffffffff168152602001600b548152602001600c548152602001600d60009054906101000a900461ffff1661ffff16815250905090565b600060a0600360000160009054906101000a90046fffffffffffffffffffffffffffffffff166fffffffffffffffffffffffffffffffff16901b8273ffffffffffffffffffffffffffffffffffffffff16610d919190611fde565b9050919050565b6000808573ffffffffffffffffffffffffffffffffffffffff166323b872dd60e01b868686604051602401610dcf93929190612627565b604051602081830303815290604052907bffffffffffffffffffffffffffffffffffffffffffffffffffffffff19166020820180517bffffffffffffffffffffffffffffffffffffffffffffffffffffffff8381831617835250505050604051610e3991906126c4565b6000604051808303816000865af19150503d8060008114610e76576040519150601f19603f3d011682016040523d82523d6000602084013e610e7b565b606091505b5091509150818015610ea95750600081511480610ea8575080806020019051810190610ea791906121c4565b5b5b610ee8576040517f08c379a0000000000000000000000000000000000000000000000000000000008152600401610edf90612727565b60405180910390fd5b505050505050565b3373ffffffffffffffffffffffffffffffffffffffff16600360010160009054906101000a900473ffffffffffffffffffffffffffffffffffffffff1673ffffffffffffffffffffffffffffffffffffffff1614610f83576040517f08c379a0000000000000000000000000000000000000000000000000000000008152600401610f7a90612793565b60405180910390fd5b565b60008161ffff1660028054905011610fd2576040517f08c379a0000000000000000000000000000000000000000000000000000000008152600401610fc990612567565b60405180910390fd5b60028261ffff1681548110610fea57610fe9611faf565b5b9060005260206000200160009054906101000a900473ffffffffffffffffffffffffffffffffffffffff169050919050565b60008160ff1660018054905011611068576040517f08c379a000000000000000000000000000000000000000000000000000000000815260040161105f90611d7c565b60405180910390fd5b60018260ff168154811061107f5761107e611faf565b5b9060005260206000200160009054906101000a900473ffffffffffffffffffffffffffffffffffffffff169050919050565b60005b81518110156112095760008282815181106110d2576110d1611faf565b5b60200260200101519050600160ff1681036111c8576004826110f49190611fde565b83511015611137576040517f08c379a000000000000000000000000000000000000000000000000000000000815260040161112e90612825565b60405180910390fd5b6111b4836001846111489190611fde565b8151811061115957611158611faf565b5b60200260200101518460028561116f9190611fde565b815181106111805761117f611faf565b5b6020026020010151856003866111969190611fde565b815181106111a7576111a6611faf565b5b6020026020010151610b69565b6004826111c19190611fde565b9150611203565b6040517f08c379a00000000000000000000000000000000000000000000000000000000081526004016111fa906128b7565b60405180910390fd5b506110b4565b5050565b6000600360000160109054906101000a900463ffffffff1663ffffffff16826fffffffffffffffffffffffffffffffff161061127e576040517f08c379a000000000000000000000000000000000000000000000000000000000815260040161127590612923565b60405180910390fd5b6000826fffffffffffffffffffffffffffffffff16815481106112a4576112a3611faf565b5b90600052602060002001600001549050919050565b6000600360000160009054906101000a90046fffffffffffffffffffffffffffffffff166fffffffffffffffffffffffffffffffff1660a083901c149050919050565b6000808473ffffffffffffffffffffffffffffffffffffffff1663a9059cbb60e01b8585604051602401611331929190612943565b604051602081830303815290604052907bffffffffffffffffffffffffffffffffffffffffffffffffffffffff19166020820180517bffffffffffffffffffffffffffffffffffffffffffffffffffffffff838183161783525050505060405161139b91906126c4565b6000604051808303816000865af19150503d80600081146113d8576040519150601f19603f3d011682016040523d82523d6000602084013e6113dd565b606091505b509150915081801561140b575060008151148061140a57508080602001905181019061140991906121c4565b5b5b61144a576040517f08c379a000000000000000000000000000000000000000000000000000000000815260040161144190612727565b60405180910390fd5b5050505050565b6040518060e0016040528060006fffffffffffffffffffffffffffffffff168152602001600063ffffffff168152602001600063ffffffff168152602001600073ffffffffffffffffffffffffffffffffffffffff1681526020016000815260200160008152602001600061ffff1681525090565b6000604051905090565b600080fd5b600080fd5b600073ffffffffffffffffffffffffffffffffffffffff82169050919050565b6000611505826114da565b9050919050565b611515816114fa565b811461152057600080fd5b50565b6000813590506115328161150c565b92915050565b6000819050919050565b61154b81611538565b811461155657600080fd5b50565b60008135905061156881611542565b92915050565b600080600060608486031215611587576115866114d0565b5b600061159586828701611523565b93505060206115a686828701611559565b92505060406115b786828701611559565b9150509250925092565b6000602082840312156115d7576115d66114d0565b5b60006115e584828501611559565b91505092915050565b600063ffffffff82169050919050565b611607816115ee565b82525050565b600060208201905061162260008301846115fe565b92915050565b60008115159050919050565b61163d81611628565b811461164857600080fd5b50565b60008135905061165a81611634565b92915050565b60008060408385031215611677576116766114d0565b5b600061168585828601611523565b92505060206116968582860161164b565b9150509250929050565b6116a981611538565b82525050565b60006020820190506116c460008301846116a0565b92915050565b600081519050919050565b600082825260208201905092915050565b6000819050602082019050919050565b6116ff81611538565b82525050565b60208201600082015161171b60008501826116f6565b50505050565b600061172d8383611705565b60208301905092915050565b6000602082019050919050565b6000611751826116ca565b61175b81856116d5565b9350611766836116e6565b8060005b8381101561179757815161177e8882611721565b975061178983611739565b92505060018101905061176a565b5085935050505092915050565b600060208201905081810360008301526117be8184611746565b905092915050565b600080fd5b600080fd5b600080fd5b60008083601f8401126117eb576117ea6117c6565b5b8235905067ffffffffffffffff811115611808576118076117cb565b5b602083019150836001820283011115611824576118236117d0565b5b9250929050565b60008083601f840112611841576118406117c6565b5b8235905067ffffffffffffffff81111561185e5761185d6117cb565b5b60208301915083602082028301111561187a576118796117d0565b5b9250929050565b60008060008060006060868803121561189d5761189c6114d0565b5b600086013567ffffffffffffffff8111156118bb576118ba6114d5565b5b6118c7888289016117d5565b9550955050602086013567ffffffffffffffff8111156118ea576118e96114d5565b5b6118f68882890161182b565b9350935050604061190988828901611559565b9150509295509295909350565b60006020828403121561192c5761192b6114d0565b5b600061193a84828501611523565b91505092915050565b60006fffffffffffffffffffffffffffffffff82169050919050565b61196881611943565b811461197357600080fd5b50565b6000813590506119858161195f565b92915050565b6000806000606084860312156119a4576119a36114d0565b5b60006119b286828701611976565b93505060206119c386828701611976565b92505060406119d486828701611559565b9150509250925092565b6119e781611943565b82525050565b6119f6816115ee565b82525050565b611a05816114fa565b82525050565b600061ffff82169050919050565b611a2281611a0b565b82525050565b60e082016000820151611a3e60008501826119de565b506020820151611a5160208501826119ed565b506040820151611a6460408501826119ed565b506060820151611a7760608501826119fc565b506080820151611a8a60808501826116f6565b5060a0820151611a9d60a08501826116f6565b5060c0820151611ab060c0850182611a19565b50505050565b600060e082019050611acb6000830184611a28565b92915050565b600082825260208201905092915050565b7f4465706f7369743a20556e747261636b656420546f6b656e0000000000000000600082015250565b6000611b18601883611ad1565b9150611b2382611ae2565b602082019050919050565b60006020820190508181036000830152611b4781611b0b565b9050919050565b611b57816114fa565b82525050565b6000602082019050611b726000830184611b4e565b92915050565b600081519050611b8781611542565b92915050565b600060208284031215611ba357611ba26114d0565b5b6000611bb184828501611b78565b91505092915050565b7f496e73756666696369656e742042616c616e6365000000000000000000000000600082015250565b6000611bf0601483611ad1565b9150611bfb82611bba565b602082019050919050565b60006020820190508181036000830152611c1f81611be3565b9050919050565b6000606082019050611c3b60008301866116a0565b611c4860208301856116a0565b611c5560408301846116a0565b949350505050565b7f4e487b7100000000000000000000000000000000000000000000000000000000600052601160045260246000fd5b6000611c97826115ee565b9150611ca2836115ee565b9250828201905063ffffffff811115611cbe57611cbd611c5d565b5b92915050565b7f416464546f6b656e3a20546f6b656e20416c7265616479204578697374000000600082015250565b6000611cfa601d83611ad1565b9150611d0582611cc4565b602082019050919050565b60006020820190508181036000830152611d2981611ced565b9050919050565b7f545820696e646578206f7574206f6620626f756e640000000000000000000000600082015250565b6000611d66601583611ad1565b9150611d7182611d30565b602082019050919050565b60006020820190508181036000830152611d9581611d59565b9050919050565b7f5665726966793a20556e65787065637465642052657175657374204964000000600082015250565b6000611dd2601d83611ad1565b9150611ddd82611d9c565b602082019050919050565b60006020820190508181036000830152611e0181611dc5565b9050919050565b6000611e1382611538565b9150611e1e83611538565b9250817fffffffffffffffffffffffffffffffffffffffffffffffffffffffffffffffff0483118215151615611e5757611e56611c5d565b5b828202905092915050565b7f5665726966793a20496e73756666696369656e742064656c7461206f7065726160008201527f74696f6e73000000000000000000000000000000000000000000000000000000602082015250565b6000611ebe602583611ad1565b9150611ec982611e62565b604082019050919050565b60006020820190508181036000830152611eed81611eb1565b9050919050565b600081905092915050565b82818337600083830152505050565b6000611f1a8385611ef4565b9350611f27838584611eff565b82840190509392505050565b6000611f40828486611f0e565b91508190509392505050565b6000819050919050565b611f5f81611f4c565b8114611f6a57600080fd5b50565b600081519050611f7c81611f56565b92915050565b600060208284031215611f9857611f976114d0565b5b6000611fa684828501611f6d565b91505092915050565b7f4e487b7100000000000000000000000000000000000000000000000000000000600052603260045260246000fd5b6000611fe982611538565b9150611ff483611538565b925082820190508082111561200c5761200b611c5d565b5b92915050565b7f496e636f6e7374616e743a20536861206461746120696e636f6e73697374616e60008201527f7400000000000000000000000000000000000000000000000000000000000000602082015250565b600061206e602183611ad1565b915061207982612012565b604082019050919050565b6000602082019050818103600083015261209d81612061565b9050919050565b7f496e636f6e7374616e743a204d65726b6c6520726f6f74206469736d61746368600082015250565b60006120da602083611ad1565b91506120e5826120a4565b602082019050919050565b60006020820190508181036000830152612109816120cd565b9050919050565b600082825260208201905092915050565b600080fd5b82818337505050565b600061213b8385612110565b93507f07ffffffffffffffffffffffffffffffffffffffffffffffffffffffffffffff83111561216e5761216d612121565b5b60208302925061217f838584612126565b82840190509392505050565b600060208201905081810360008301526121a681848661212f565b90509392505050565b6000815190506121be81611634565b92915050565b6000602082840312156121da576121d96114d0565b5b60006121e8848285016121af565b91505092915050565b7f5a4b5665726966793a207a6b736e61726b20636865636b206661696c65640000600082015250565b6000612227601e83611ad1565b9150612232826121f1565b602082019050919050565b600060208201905081810360008301526122568161221a565b9050919050565b600082825260208201905092915050565b6000601f19601f8301169050919050565b600061228b838561225d565b9350612298838584611eff565b6122a18361226e565b840190509392505050565b600060408201905081810360008301526122c781858761227f565b90506122d660208301846116a0565b949350505050565b7f4e487b7100000000000000000000000000000000000000000000000000000000600052604160045260246000fd5b6123168261226e565b810181811067ffffffffffffffff82111715612335576123346122de565b5b80604052505050565b60006123486114c6565b9050612354828261230d565b919050565b600067ffffffffffffffff821115612374576123736122de565b5b602082029050602081019050919050565b600061239861239384612359565b61233e565b905080838252602082019050602084028301858111156123bb576123ba6117d0565b5b835b818110156123e457806123d08882611b78565b8452602084019350506020810190506123bd565b5050509392505050565b600082601f830112612403576124026117c6565b5b8151612413848260208601612385565b91505092915050565b600060208284031215612432576124316114d0565b5b600082015167ffffffffffffffff8111156124505761244f6114d5565b5b61245c848285016123ee565b91505092915050565b600061247082611538565b91507fffffffffffffffffffffffffffffffffffffffffffffffffffffffffffffffff82036124a2576124a1611c5d565b5b600182019050919050565b6000819050919050565b6000819050919050565b60006124dc6124d76124d2846124ad565b6124b7565b611538565b9050919050565b6124ec816124c1565b82525050565b600060408201905061250760008301856116a0565b61251460208301846124e3565b9392505050565b7f566572696669657220696e646578206f7574206f6620626f756e640000000000600082015250565b6000612551601b83611ad1565b915061255c8261251b565b602082019050919050565b6000602082019050818103600083015261258081612544565b9050919050565b600061259282611538565b915061259d83611538565b92508282039050818111156125b5576125b4611c5d565b5b92915050565b7f576974686472617720746f20746865207a65726f206164647265737300000000600082015250565b60006125f1601c83611ad1565b91506125fc826125bb565b602082019050919050565b60006020820190508181036000830152612620816125e4565b9050919050565b600060608201905061263c6000830186611b4e565b6126496020830185611b4e565b61265660408301846116a0565b949350505050565b600081519050919050565b60005b8381101561268757808201518184015260208101905061266c565b60008484015250505050565b600061269e8261265e565b6126a88185611ef4565b93506126b8818560208601612669565b80840191505092915050565b60006126d08284612693565b915081905092915050565b7f5446000000000000000000000000000000000000000000000000000000000000600082015250565b6000612711600283611ad1565b915061271c826126db565b602082019050919050565b6000602082019050818103600083015261274081612704565b9050919050565b7f417574686f726974793a20526571756972652041646d696e0000000000000000600082015250565b600061277d601883611ad1565b915061278882612747565b602082019050919050565b600060208201905081810360008301526127ac81612770565b9050919050565b7f57697468647261773a20496e73756666696369656e7420617267206e756d626560008201527f7200000000000000000000000000000000000000000000000000000000000000602082015250565b600061280f602183611ad1565b915061281a826127b3565b604082019050919050565b6000602082019050818103600083015261283e81612802565b9050919050565b7f536964654566666563743a20556e6b6e6f776e53696465456666656374436f6460008201527f6500000000000000000000000000000000000000000000000000000000000000602082015250565b60006128a1602183611ad1565b91506128ac82612845565b604082019050919050565b600060208201905081810360008301526128d081612894565b9050919050565b7f4f75744f66426f756e643a20546f6b656e20496e646578000000000000000000600082015250565b600061290d601783611ad1565b9150612918826128d7565b602082019050919050565b6000602082019050818103600083015261293c81612900565b9050919050565b60006040820190506129586000830185611b4e565b61296560208301846116a0565b939250505056fea264697066735822122093f42b8de0b5fe321b862f7b47b98ef80d7498f247031f267116cd44d54510de64736f6c63430008100033",
  "immutableReferences": {},
  "source": "// SPDX-License-Identifier: UNLICENSED\npragma solidity ^0.8.0;\nimport \"@openzeppelin/contracts/token/ERC20/ERC20.sol\";\nimport \"./Verifier.sol\";\nimport \"./Transaction.sol\";\nimport \"./DelphinusBridge.sol\";\nimport \"./MKT.sol\";\nimport \"./TransferHelper.sol\";\n\ncontract Bridge is DelphinusBridge {\n    event Deposit(uint256 l1token, uint256 l2account, uint256 amount);\n    event WithDraw(uint256 l1account, uint256 l2account, uint256 amount);\n    event SwapAck(uint256 rid, uint256 l2account);\n\n    TokenInfo[] private _tokens;\n    Transaction[] private transactions;\n    DelphinusVerifier[] private verifiers;\n    BridgeInfo _bridge_info;\n\n    mapping(uint256 => bool) private _tmap;\n    address private _owner;\n\n    mapping(uint256 => bool) private hasSideEffiect;\n    uint256 merkle_root;\n    uint256 rid;\n    uint16 verifierID;\n\n    constructor(uint32 chain_id) {\n        _bridge_info.chain_id = chain_id;\n        _bridge_info.owner = msg.sender;\n        merkle_root = 0x151399c724e17408a7a43cdadba2fc000da9339c56e4d49c6cdee6c4356fbc68;\n        rid = 0;\n    }\n\n    /* Make sure token index is sain and return token uid */\n    function get_token_uid(uint128 tidx) private view returns (uint256) {\n        require(tidx < _bridge_info.amount_token, \"OutOfBound: Token Index\");\n        return _tokens[tidx].token_uid;\n    }\n\n    function ensure_admin() private view {\n        require(_bridge_info.owner == msg.sender, \"Authority: Require Admin\");\n    }\n\n    function getBridgeInfo() public view returns (BridgeInfo memory) {\n        return\n            BridgeInfo(\n                _bridge_info.chain_id,\n                _bridge_info.amount_token,\n                _bridge_info.amount_pool,\n                _bridge_info.owner,\n                merkle_root,\n                rid,\n                verifierID\n            );\n    }\n\n    function addToken(uint256 token) public returns (uint32) {\n        //ensure_admin();\n        uint32 cursor = uint32(_tokens.length);\n        _tokens.push(TokenInfo(token));\n        _bridge_info.amount_token = cursor + 1;\n        require(_tmap[token] == false, \"AddToken: Token Already Exist\");\n        if (token != 0) {\n            _tmap[token] = true;\n        }\n        return cursor;\n    }\n\n    function allTokens() public view returns (TokenInfo[] memory) {\n        return _tokens;\n    }\n\n    function _withdraw(\n        uint128 tidx,\n        uint128 amount,\n        uint256 l1recipent\n    ) public {\n        uint256 tokenid = get_token_uid(tidx);\n        if (_is_local(tokenid) && _is_local(l1recipent)) {\n            address token = address(uint160(tokenid));\n            address recipent = address(uint160(l1recipent));\n\n            // Sanitity checks\n            require(recipent != address(0), \"Withdraw to the zero address\");\n\n            // transfer amount back to recipent\n            IERC20 underlying_token = IERC20(token);\n            //underlying_token.transfer(recipent, amount);\n            TransferHelper.safeTransfer(address(underlying_token), recipent, amount);\n        }\n    }\n\n    function addTransaction(address txaddr, bool sideEffect) public returns (uint256) {\n        ensure_admin();\n        uint256 cursor = transactions.length;\n        require(transactions.length < 255, \"TX index out of bound\");\n        transactions.push(Transaction(txaddr));\n        if (sideEffect) {\n          hasSideEffiect[cursor] = sideEffect;\n        }\n        return cursor;\n    }\n\n    function addVerifier(address vaddr) public returns (uint256) {\n        ensure_admin();\n        uint256 cursor = verifiers.length;\n        require(verifiers.length < 65535, \"Verifier index out of bound\");\n        verifiers.push(DelphinusVerifier(vaddr));\n        verifierID = uint16(verifiers.length - 1);\n        return cursor;\n    }\n\n    function _get_transaction(uint8 tid) private view returns (Transaction) {\n        require(transactions.length > tid, \"TX index out of bound\");\n        return transactions[tid];\n    }\n\n    function _get_verifier(uint16 vid) private view returns (DelphinusVerifier) {\n        require(verifiers.length > vid, \"Verifier index out of bound\");\n        return verifiers[vid];\n    }\n\n    /* encode the l1 address into token_uid */\n    function _l1_address(address account) private view returns (uint256) {\n        return\n            (uint256(uint160(account))) +\n            (uint256(_bridge_info.chain_id) << 160);\n    }\n\n    function _is_local(uint256 l1address) private view returns (bool) {\n        return ((l1address >> 160) == (uint256(_bridge_info.chain_id)));\n    }\n\n    function deposit(\n        address token,\n        uint256 amount,\n        uint256 l2account\n    ) public {\n        IERC20 underlying_token = IERC20(token);\n        uint256 token_uid = _l1_address(token);\n        require(_tmap[token_uid] == true, \"Deposit: Untracked Token\");\n        uint256 balance = underlying_token.balanceOf(msg.sender);\n        require(balance >= amount, \"Insufficient Balance\");\n        //underlying_token.transferFrom(msg.sender, address(this), amount); //USDT does not follow ERC20 interface so have to use other method\n        TransferHelper.safeTransferFrom(address(underlying_token), msg.sender, address(this), amount);\n        emit Deposit(_l1_address(token), l2account, amount);\n    }\n\n    /*\n     * @dev side effect encoded in the update function\n     * deltas = [| opcode; args |]\n     */\n    function _update_state(uint256[] memory deltas) private {\n        uint256 cursor = 0;\n        while (cursor < deltas.length) {\n            uint256 delta_code = deltas[cursor];\n            if (delta_code == _WITHDRAW) {\n                require(\n                    deltas.length >= cursor + 4,\n                    \"Withdraw: Insufficient arg number\"\n                );\n                _withdraw(\n                    uint128(deltas[cursor + 1]),\n                    uint128(deltas[cursor + 2]),\n                    deltas[cursor + 3]\n                );\n                cursor = cursor + 4;\n            } else {\n                revert(\"SideEffect: UnknownSideEffectCode\");\n            }\n        }\n    }\n\n    uint256 constant BATCH_SIZE = 10;\n    uint256 constant OP_SIZE = 81;\n\n    /*\n     * @dev Data encodes the delta functions with there verification in reverse order\n     * data = opcode args; opcode' args'; ....\n     */\n    function verify(\n        bytes calldata tx_data,\n        uint256[] calldata verify_data, // [8]: old root, [9]: new root, [10]: sha_low, [11]: sha_high\n        uint256 _rid\n    ) public {\n        require(rid == _rid, \"Verify: Unexpected Request Id\");\n\n        require(\n            tx_data.length == OP_SIZE * BATCH_SIZE,\n            \"Verify: Insufficient delta operations\"\n        );\n\n        uint256 sha_pack = uint256(sha256(tx_data));\n        require(\n            sha_pack == (verify_data[8] << 128) + verify_data[9],\n            \"Inconstant: Sha data inconsistant\"\n        );\n\n        require(\n            merkle_root == verify_data[10],\n            \"Inconstant: Merkle root dismatch\"\n        );\n        DelphinusVerifier verifier = _get_verifier(verifierID);\n        bool v = verifier.verifyDelphinusTx(verify_data);\n        require(v == true, \"ZKVerify: zksnark check failed\");\n\n        for (uint i = 0; i < BATCH_SIZE; i++) {\n            uint8 op_code = uint8(tx_data[i * OP_SIZE]);\n            require(transactions.length > op_code, \"TX index out of bound\");\n            if (hasSideEffiect[op_code]) {\n                Transaction transaction = _get_transaction(op_code);\n                uint256[] memory update = transaction.sideEffect(tx_data, i * OP_SIZE + 1);\n                _update_state(update);\n            }\n        }\n\n        uint256 new_merkle_root = verify_data[11];\n        merkle_root = new_merkle_root;\n        rid = _rid + BATCH_SIZE;\n\n        emit SwapAck(_rid, 0);\n    }\n}\n",
  "sourcePath": "/home/frank/zkcross-lerna/packages/solidity/contracts/Bridge.sol",
  "compiler": {
    "name": "solc",
    "version": "0.8.16+commit.07a7930e.Linux.g++"
  },
  "schemaVersion": "3.4.11",
  "updatedAt": "2023-01-08T08:02:57.782Z",
  "networkType": "ethereum",
  "devdoc": {
    "kind": "dev",
    "methods": {
      "getBridgeInfo()": {
        "details": "snark verification stub"
      }
    },
    "version": 1
  },
  "userdoc": {
    "kind": "user",
    "methods": {},
    "version": 1
  }
}